:10000000CC220400000000000000000000000000FE
:1000100000000000000000000000000000000000E0
:1000200000000000000000000000000000000000D0
:1000300000000000000000000000000000000000C0
:1000400000000000000000000000000000000000B0
:10459800AF8A2000F07F220020A0B7001020200062
:1045A80032A0B700400020004420B700A223020038
:1045B80000000000AC230200000000008A1F780001
:1045C8008B1F78008C1F780005FF0700CCC1B30053
:1045D8001BC0B300AAC0B3000AFF07003CC0B30069
:1045E8001620EF001AC1B30006FF0700BDF207004E
:1045F8000A5822000B00200009FF0700980020003D
:10460800773522000E20ED00FEFF3A001020ED0065
:10461800FCFF3A002A85200087FF07005A81200006
:1046280085FF0700CA81200083FF0700EA89200070
:1046380081FF07007BFF07006000E1003A003600B9
:104648000CC1B3006B8920006A8820009CFF07001A
:104658004B8420006A88200088FF07006000E10082
:1046680003003A008A82200073FF07002E003700FB
:10467800FB8220006A88200080FF07006000E100BC
:1046880003003A000A8020006BFF0700260037006D
:104698007B8020006A88200078FF07006000E10026
:1046A80003003A00DA83200063FF07001E0037008A
:1046B8005B8520006A88200070FF07006000E10029
:1046C80003003A003A8620005BFF07001600370017
:1046D8009B8920006A88200068FF07006000E100CD
:1046E8000D003A0087FE070095F20700020020003F
:1046F800A3472400BCF00700809FBE0000002800EC
:10470800801F7800C0652000801F7800A3FE070086
:104718008F00B10004003700FA86200046FF07002A
:104728006A88200089FE0700C2FF37004F0678001C
:0C473800CF0578004F057800FFFF370028
:1041E8000000FA00217420006204200073052000FA
:1041F800824878008348780042C7A9000080FA0006
:0442080000000600AC
:10420C000000FA008D1F78001A20EF007AFD0700DD
:0C421C00CF0678000080FA0000000600C9
:103804000200FA00F00F200000079800605CE1005D
:10381400AB003A001A00E200010032007102070016
:1038240063003700006C20000C487800A1003700CA
:10383400106C20000C4878009E003700206C20009B
:103844000C4878009B003700306C20000C4878004E
:1038540098003700406C20000C4878009500370031
:10386400506C20000C48780092003700606C2000F7
:103874000C4878008F003700706C20000C487800EA
:103884008C003700806C20000C48780089003700D9
:10389400906C20000C48780086003700A06C200053
:1038A4000C48780083003700B06C20000C48780086
:1038B40080003700C06C20000C4878007D00370081
:1038C400D06C20000C4878007A003700E06C2000AF
:1038D4000C48780077003700F06C20000C48780022
:1038E40074003700006D20000C4878007100370028
:1038F400106D20000C4878006E003700206D200009
:103904000C4878006B003700306D20000C487800BC
:1039140068003700406D20000C48780065003700CF
:10392400506D20000C48780062003700606D200064
:103934000C4878005F003700706D20000C48780058
:103944005C003700806D20000C4878005900370077
:10395400906D20000C48780056003700A06D2000C0
:103964000C48780053003700B06D20000C487800F4
:1039740050003700C06D20000C4878004D0037001F
:10398400D06D20000C4878004A003700E06D20001C
:103994000C48780047003700F06D20000C48780090
:1039A400440037000020EF00000798004100370072
:1039B4006054E1009BFF32006154E1009CFF32003F
:1039C4006254E1009DFF32006354E1009EFF320027
:1039D4006454E1009FFF32006554E100A0FF32000F
:1039E4006654E100A1FF32006754E100A2FF3200F7
:1039F4006854E100A3FF32006954E100A4FF3200DF
:103A04006A54E100A5FF32006B54E100A6FF3200C6
:103A14006C54E100A7FF32006D54E100A8FF3200AE
:103A24006E54E100A9FF32006F54E100AAFF320096
:103A34007054E100ABFF32007154E100ACFF32007E
:103A44007254E100ADFF32007354E100AEFF320066
:103A54007454E100AFFF32007554E100B0FF32004E
:103A64007654E100B1FF32007754E100B2FF320036
:103A74007854E100B3FF32007954E100B4FF32001E
:103A84007A54E100B5FF32007B54E100B6FF320006
:103A94007C54E100B7FF32007D54E100B8FF3200EE
:103AA4007E54E100B9FF32007F54E100BAFF3200D6
:103AB400BCFF37001A00E200010032008AF507005B
:103AC400615CE100BD003A001A00E200010032002E
:103AD400C40107006C003700C06B20000A4878005E
:103AE400B3003700E06B20000A487800B0003700CC
:103AF400D06B20000A487800AD0037001068200021
:103B04000A487800AA003700206820000A48780094
:103B1400A7003700306820000A487800A400370066
:103B2400406820000A487800A1003700E0682000BF
:103B34000A4878009E003700F06820000A487800A0
:103B44009B003700006920000A487800980037007D
:103B5400106920000A487800950037002069200089
:103B64000A48780092003700306920000A4878003B
:103B74008F003700406920000A4878008C00370025
:103B8400606920000A4878008900370070692000C5
:103B94000A48780086003700906A20000A487800B6
:103BA40083003700806A20000A48780080003700CC
:103BB400A06A20000A4878007D003700D06A2000FF
:103BC4000A4878007A003700C06A20000A48780062
:103BD40077003700E06A20000A4878007400370054
:103BE400F06A20000A4878007100370060682000FD
:103BF4000A4878006E003700706820000A48780090
:103C04006B003700806820000A487800680037009D
:103C1400906820000A48780065003700506A200048
:103C24000A48780062003700406A20000A48780099
:103C34005F003700706A20000A4878005C00370093
:103C4400606A20000A48780059003700B06A2000F2
:103C54000A48780056003700306A20000A48780085
:103C640053003700706B20000A487800500037007A
:103C7400606B20000A4878004D0037000020EF00F8
:103C8400000798004A0037006064E10092FF3200A8
:103C94006164E10093FF32006264E10094FF32004A
:103CA4006364E10095FF32006464E10096FF320032
:103CB4006564E10097FF32006664E10098FF32001A
:103CC4006764E10099FF32006864E1009AFF320002
:103CD4006964E1009BFF32006A64E1009CFF3200EA
:103CE4006B64E1009DFF32006C64E1009EFF3200D2
:103CF4006D64E1009FFF32006E64E100A0FF3200BA
:103D04006F64E100A1FF32007064E100A2FF3200A1
:103D14007164E100A3FF32007264E100A4FF320089
:103D24007364E100A5FF32007464E100A6FF320071
:103D34007564E100A7FF32007664E100A8FF320059
:103D44007764E100A9FF32007864E100AAFF320041
:103D54007964E100ABFF32007A64E100ACFF320029
:103D64007B64E100ADFF32007C64E100AEFF320011
:103D74007D64E100AFFF32007E64E100B0FF3200F9
:103D84007F64E100B1FF320000C2B3000064E100CF
:103D9400B1FF320010C2B3000064E100B1FF320091
:103DA40020C2B3000064E100B1FF3200B3FF37006A
:103DB4001A00E20001003200CBF40700940037003F
:103DC4001600AE00C802A9001600AF00C802A80081
:103DD400CA0037001600AE00C822A9001600AF00C2
:103DE400C822A800C50037001600AE00D902A900F9
:103DF4001600AF00D902A800C00037001600AE00BC
:103E0400D942A9001600AF00D942A800BB00370070
:103E14001600AE00D922A9001600AF00D922A800CE
:103E2400B60037001600AE00C8C2A9001600AF00E5
:103E3400C8C2A800B10037001600AE00C8E2A9004D
:103E44001600AF00C8E2A800AC0037001600AE00B0
:103E5400C902A9001600AF00C902A800A7003700D4
:103E64001600AE00C922A9001600AF00C922A8009E
:103E7400A20037001600AE00E882A9001600AF00C9
:103E8400E882A8009D0037001600AE00D802A90001
:103E94001600AF00D802A800980037001600AE0044
:103EA400D962A9001600AF00D962A80093003700B8
:103EB4001600AE00C842A9001600AF00C842A80010
:103EC4008E0037001600AE00C9C2A9001600AF006C
:103ED400C9C2A800890037001600AE00E862A90034
:103EE4001600AF00E862A800840037001600AE0098
:103EF400E8A2A9001600AF00E8A2A8007F003700DE
:103F04001600AE00C8A2A9001600AF00C8A2A800FF
:103F14007A0037001600AE00F102A9001600AF00C7
:103F2400F102A800750037001600AE00D8A2A9005F
:103F34001600AF00D8A2A800700037001600AE002B
:103F4400F0C2A9001600AF00F0C2A8006B00370051
:103F54001600AE00D862A9001600AF00D862A8000F
:103F6400660037001600AE00D842A9001600AF0064
:103F7400D842A800610037001600AE00D822A9007C
:103F84001600AF00D822A8005C0037001600AE006F
:103F9400D882A9001600AF00D882A80057003700C5
:103FA4001600AE00F0C2A9001600AF00F0C2A800CF
:103FB400520037001600AE00F122A9001600AF002F
:103FC400F122A8004D0037001600AE00C882A900F7
:103FD4001600AF00C882A800480037001600AE00E3
:103FE400C9E2A9001600AF00C9E2A80043003700E7
:103FF4001600AE00E842A9001600AF00E842A8008F
:104004003E0037000020EF00000798003B00370017
:104014006054E1006AFF32006154E1006DFF320038
:104024006254E10070FF32006354E10073FF320018
:104034006454E10076FF32006654E10079FF3200F7
:104044006754E1007CFF32006854E1007FFF3200D6
:104054006954E10082FF32006A54E10085FF3200B6
:104064006B54E10088FF32006C54E1008BFF320096
:104074006D54E1008EFF32006E54E10091FF320076
:104084007054E10094FF32007154E10097FF320054
:104094007254E1009AFF32007354E1009DFF320034
:1040A4007454E100A0FF32007554E100A3FF320014
:1040B4007654E100A6FF32007754E100A9FF3200F4
:1040C4007854E100ACFF32007954E100AFFF3200D4
:1040D4007A54E100B2FF32007B54E100B5FF3200B4
:1040E4007C54E100B8FF32007D54E100BBFF320094
:1040F4007E54E100BEFF3200C2FF37000E00900084
:084104000080FA000000060033
:1010EC000000FA0021742000620420007305200027
:1010FC00824878008348780042C7A8000080FA0034
:04110C0000000600D9
:104228000800FA00C0092200404588000009220061
:10423800104588006021220020458800F0FF2F00EB
:10424800304588002022EF000000280022A2B70095
:104258002062A900ABFF07000001BE00803E2000DD
:104268000100200000FD07000001BE00A8FF0700B4
:104278004100DE00640040008000780060004700D4
:104288000A88BE008100E900030035001018D0003C
:104298001090D200FBFF3700829FBE008A9FBE00AD
:1042A8000200BE000E0190009E0190000002EB008B
:1042B800F6FC07004F05BE004F01BE00200798001E
:1042C800310798008A9FBE000200BE000E019000D0
:1042D8009E0190000002EB0018FD07004F05BE008C
:1042E8008001780001027800600047005001D10089
:1042F800C080D300640047003008E1002090E1004E
:104308000700310061804100E0004A008002780027
:104318000103780005017800860178000200370063
:1043280003017800840178000280710033003A00AC
:1043380074FF07000001BE00803E2000010020003D
:10434800C9FC07000001BE0071FF07004100DE0044
:1043580000A0EC0080007800600047000A88BE00DA
:104368008100E900030035001018D0001090D20039
:10437800FBFF3700829FBE000200BE000E019000C6
:104388009E0190000002EB00C0FC07004F01BE0038
:1043980020079800310798000200BE000E01900027
:1043A8009E0190000002EB00E4FC07008001780009
:1043B80001027800600047005001D100C080D3009E
:1043C800640047003008E1002090E1000700310058
:1043D80061804100E0004A00800278000103780013
:1043E8000501780086017800020037000301780093
:1043F800840178002062A8000000370061005100A5
:10440800E0805900401188002222A90021E2A8007A
:104418002342A800F2FC0700F1FC07000080FA0024
:04442800000006008A
:0C410C0000D02700010020000000060089
:08411800200020000000060059
:1037E80098002000773522000E20ED00FEFF3A00F9
:0C37F8001020ED00FCFF3A00000006006D
:103670000000FA00020AB800500088000200B800FA
:1036800081004200032AB800810042000080FA0055
:043690000000060030
:103694000000FA00020007009E1B04000000000066
:1036A4000800E20002003A001000070000000600D3
:1036B400811F78000200E20002003D00600010005B
:1036C400E08018000600E20002003D0060011100E5
:1036D400E0811900050007004F00E00002003B00F4
:1036E40060001000E08018000000060002000700DF
:1036F4000480BE00000006006022B800060220001C
:103704000000D0008180D2000482D2008582D200E1
:103714000000A8000202520083825A0003003B000A
:103724000202420083824A000000A1000603E9006D
:10373400F3FF3A00000006000080FA0000000600D3
:103744000000FA0002000700F01B04000000000063
:103754000800E20002003A00100007000000060022
:10376400839F68000200E20002003D006000100038
:10377400E08018000600E20002003D006001110034
:10378400E0811900050007004F00E00002003B0043
:1037940060001000E0801800000006006022B800FD
:1037A400060220000000D0008180D2000482D200F2
:1037B4008582D2000000A8000202520083825A00CF
:1037C40003003B000202420083824A000000A10081
:1037D4000603E900F3FF3A00000006000080FA0047
:0437E40000000600DB
:104440000000FA000220EF001A4078006004E1004A
:104450000A0032008A1F78000085FB0036FF070043
:104460004F05780061C04000804078000080FB006C
:104470000000450010407800F4FF37000080FA008B
:044480000000060032
:104138000000FA002302AF0001003700FDFF37003E
:0C4148002A1188000080FA000000060028
:10442C000000FA002282BF00610060000080FA00E8
:04443C000000060076
:1044C8000000FA000420EF000020EF00004278000E
:1044D8001840E2002A003200F0CFB3000064E10087
:1044E800020032006140560000467800CDFF070008
:1044F8006000E10001003A00FCFF370006FF0700FA
:10450800804178008280FB00810045008048780067
:104518000460EC000480FB0000804500101CE100F2
:1045280002003A00E1414200070037000020EF0096
:104538001B1CE10003003A000060EC008041780099
:1045480001003700804178000380FB0000804500AF
:10455800104078006004E10007003A008280FB0008
:104568000380FB0000805000800045000020EF0021
:10457800804878000400370003427800D4FF3700F1
:104588000020EF00004D78000080FA0000000600CF
:104120000000FA0000000000000000002682BF002E
:084130000080FA000000060007
:104484000000FA001A04E000080032001A40780024
:104494001B04E10005003A006100450000057800B6
:1044A4006180450080057800F6FF37001B407800E6
:1044B4009A80FB000080FB00008050000080FA001E
:0444C40000000600EE
:1041A4000200FA008A1F78008B1F78008C1F7800A9
:1041B4004EB99700E00047006A0057008008780075
:1041C40001067800BEBD970002057800B4F407002C
:1041D4004F067800CF0578004F0578000080FA007C
:0441E40000000600D1
:1014A4002400FA0000002000500F98008B00780000
:1014B400618045008005780011407800204F980035
:1014C4000040E20066083200AE48900050C2B3000B
:1014D400000CE100090032008C1F78008A9FBE00D6
:1014E4008A1F78002E4D9000CF0478000900010077
:1014F4004F05BE004F067800ECFF37000020EF00D8
:10150400600798000020EF00700798001F00370064
:10151400FE0090006E0047006888700061804500FE
:10152400800578002E003700FE0090006E00470012
:1015340061887000618045008005780028003700CC
:10154400FE0090006E0047006288700061804500D4
:1015540080057800220037007E0190000180200081
:101564006E00470001087100618045008005780025
:101574001B003700FE0090006E0047006488700076
:101584006180450080057800150037009B40780095
:10159400D0C2B300000CE100DDFF32009B407800B4
:1015A40000C2B300000CE100DFFF32009B40780072
:1015B400B0C2B300000CE100E1FF32009B407800B0
:1015C40030C2B300000CE100E3FF32009B4078001E
:1015D40000C3B300000CE100E6FF32000100370055
:1015E400CAFF37006E0047001010A6000400370041
:1015F400E2FF2F00EE0047006E0047001108610073
:101604006E0047001030A60004003700B2FF2F0020
:10161400EE0047006E004700110861001B4078008F
:101624000080FB008A1F78000045780094FD0700C5
:101634004F0578000000E200160032000020EF00A1
:1016440060079800EE009000A00020000089B90017
:101654001B4078000080FB000001410001032000D2
:101664006C00470001085100618045008005780046
:101674001B4078000080FB008A1F7800004578003A
:101684007FFD07004F0578000000E200EDFF3A00FF
:101694000D0037009B407800A0C2B300000CE100AD
:1016A40009003A008C0078001C00780000A0ED00CE
:1016B400000E780011007800100078006007980090
:1016C40061804500800578009B407800E0C2B3004B
:1016D400000CE10027003A00618045008005780095
:1016E4009B407800A0C2B300000CE1000A003A005D
:1016F4008C0078001C00780000A0ED00000E78003B
:1017040011007800100078004007980061804500BF
:1017140080057800160037000020EF00400798008D
:101724001B4078000080FB008A1F78000045780089
:1017340053FD07004F0578000000E2000C00320062
:10174400CE009000A00020000089B9001B40780062
:101754000080FB00000141000103200068004700F5
:10176400010851006180450080057800ECFF3700D6
:10177400060037000020EF00400798007E0190002B
:10178400010021006E004700010871008B00780001
:10179400618045008005780011407800204F980052
:1017A4009B0037005E089000AE073700FE009000F3
:1017B4006E00470070887000F4FF37007E019000CF
:1017C400014020006E00470001087100D00037007E
:1017D40002022000EE0047006E004700110871006D
:1017E4007E019000011020006E0047000108710086
:1017F400C70037007E019000012020006E004700E2
:1018040001087100C200370002042000EE00470006
:101814006E00470011087100BD003700BC0037009E
:1018240002022000EE0047006E004700110871001C
:1018340002082000EE0047006E0047001108710006
:10184400B30037008C0078001C00780000A0ED0085
:10185400000E78001100780010007800300F980016
:101864006000E10002003A00A0862000300F9800DA
:101874000020EF00400F9800BE0890007800470059
:10188400108040001004E000040032004E08900074
:101894000020EC00400F9800F7FF37006800470075
:1018A4001000E00006003200CE00900078004700EF
:1018B4001008E100020031004E009000400F980033
:1018C400EE009000780047001008E10005003600A3
:1018D4006E019000F80047006C00470011085100A9
:1018E400020037000020EF00600798006E004700F8
:1018F4001030A7000F0037006E019000EE0090003A
:101904006C004700618850000400E20009003200C6
:101914008C1F78008A9FBE008A1F78000AC2B30019
:10192400CF047800090001004F05BE004F0678007F
:10193400F1FF3700CE0890004E0890000020ED0023
:10194400400F98000200E2000D0032003E089000B3
:101954008C1F78008A9FBE008A1F7800104578008B
:10196400CF047800090001004F05BE004F0678003F
:101974003E0890000020EC00300F9800EDFF370087
:101984006E0047001030A6000F0037006E01900073
:10199400EE0090006C004700618850000400E200F3
:1019A400090032008C1F78008A9FBE008A1F7800CD
:1019B4000AC2B300CF047800090001004F05BE003D
:1019C4004F067800F1FF3700B8FE37008C0078002E
:1019D4001C00780000A0ED00000E780011007800D3
:1019E40010007800204F98006A004700300F9800DC
:1019F40010002000400F9800A8FF3700020C2000C0
:101A0400EE0047006E0047001108710040003700E7
:101A14002E4890006004E10062FF3200AE4890005E
:101A2400C0C6B300000CE10060FF3200AE48900075
:101A3400C0C4B300000CE1005CFF3200AE4890006B
:101A440060C6B300000CE1005CFF3200AE489000B9
:101A540050C4B300000CE1005DFF3200AE489000BA
:101A640050C6B300000CE1005DFF3200AE489000A8
:101A740070C6B300000CE1005EFF3200AE48900077
:101A8400F0C6B300000CE1005FFF3200AE489000E6
:101A940040C6B300000CE10060FF3200AE48900085
:101AA40090C6B300000CE1005CFF3200AE48900029
:101AB40000C7B300000CE10059FF3200AE489000AB
:101AC40080C5B300000CE10055FF3200AE48900021
:101AD40080C7B300000CE10055FF3200AE4890000F
:101AE40030C7B300000CE10056FF3200AE4890004E
:101AF40030C6B300000CE100B4FF3200AE489000E1
:101B040050C7B300000CE100BCFF3200B6FF370041
:101B1400FE0090000070200000806000AF043200DE
:101B24006E00470010C0A6000200370060002000CD
:101B3400400798008C0078001C0078006400500076
:101B4400000E7800110178001200BE00000F98000A
:101B5400110F98008C1F78008A9FBE000420EF00AC
:101B64000620EF0041FC07000000E0000060EF00E9
:101B740001003D000060EC004F05BE004F067800F8
:101B84000040E2000A0032008E0990001E0A900014
:101B9400010020000200280070004700019869003D
:101BA40002106A00FE0090006E0047006388700017
:101BB4000020EF00200F98008C1F78008A9FBE0041
:101BC4000E0890009E0890000420EF000620EF000D
:101BD40026FC07000000E0000060EF000100320076
:101BE4000060EC004F05BE004F0678000040E200A4
:101BF40049003200F401470070004700B00078004B
:101C040020017800C710DE000001EB00F00F200077
:101C140080806000E0072000008050008009780088
:101C2400110020007400470010881000AE089000D6
:101C3400300020000088B900200F9800A200200086
:101C4400110009000200D800200F98006000E10094
:101C540003003D00110020007400470010881000AC
:101C64002E089000600010008C1F78008A9FBE0030
:101C74000045780070FC07000E0990009E09900052
:101C8400DEF90700300F9800410F98000200200091
:101C940003F823003E089000CE089000F3FB0700F1
:101CA4000000E0000060EF0001003D000060EC0077
:101CB4004F05BE004F0678000040E20004003200E9
:101CC4001100200074004700108810001200370033
:101CD4008C1F78008A9FBE0002002000031224009B
:101CE4003E089000CE089000DBFB07000000E000F7
:101CF4000060EF00010035000060EC004F05BE00FD
:101D04004F0678000040E20003003200110020007A
:101D140074004700108840002E0890006000E10025
:101D240003003C0010C0B300204F980002003700AD
:101D34004E509000204F98006E0047001080A7007E
:101D44000E0037006E0047001090A6000A0037000E
:101D5400C1FF2F00740047001008E10005003C009B
:101D6400AE089000680047001008E10001003D0043
:101D740001003700010037001102370068004700F6
:101D84001000E000060032006E0047001090A6002C
:101D940003003700CE0090006800470061885000BF
:101DA4004E0090006800E1000300360080C0B300DC
:101DB400204F9800020037000E489000204F9800F2
:101DC4008C1F78008A9FBE000E0890009E08900029
:101DD4000420EF000620EF00A4FB07000000E00051
:101DE4000060EF00010032000060EC004F05BE000F
:101DF4004F0678000040E200720032008C1F780029
:101E04008A9FBE004E5590000BFC07000001BE00E7
:101E14000E0890009E089000F4FA0700000F980046
:101E2400110F98006A0047001080FB00600010004A
:101E34000045780000FC07000001BE000E08900079
:101E44009E089000E9FA0700000F9800110F98000F
:101E540017FD0700BBFC0700600F9800710F980086
:101E64000E0890009E0890006E099000FE099000F4
:101E740045FD07000200200003F0230076FB070065
:101E84000000E0000060EF00010035000060EC009D
:101E94004F05BE004F0678000040E2000B00320000
:101EA4000E0990009E0990000000200001F023001C
:101EB4008C1F78008A9FBE00DDF907004F05BE0025
:101EC4004F067800000F9800110F98008C1F7800BF
:101ED4008A9FBE000E0890009E089000F4FC070044
:101EE4004F05BE004F0678006A0147001281FB00CF
:101EF4000420EC00C211DD00C241280003024100AD
:101F04001401BE000200E1000388E1000F00390063
:101F14008C1F78008A9FBE000E0890009E089000D7
:101F2400D2CC2C00C3DC230034F907004F05BE00DB
:101F34004F067800000F9800110F98001100200040
:101F440074004700108840001E0037008C1F780082
:101F54008A9FBE000E0890009E089000D4FC0700E3
:101F64004F05BE004F0678006A0147001281FB004E
:101F7400C211DD00C2412800030241001401BE0069
:101F84000200E1000388E1000E0031008C1F78009C
:101F94008A9FBE000E0890009E0890000200200058
:101FA4000312240015F907004F05BE004F06780000
:101FB400000F9800110F98001100200074004700D2
:101FC400108810006E0047001090A60049003700EA
:101FD4006E00470010B0A700460037004E00900086
:101FE4006A00E10002003400A000200040079800CD
:101FF4008C1F78008A9FBE000E0890009E089000F7
:10200400ABFC07004F05BE004F067800300F980068
:10201400410F9800F600470031007800210070005D
:102024001D0032008C1F78008A9FBE00A200200091
:10203400030020003E089000CE0890000002EB0050
:10204400930507004F05BE004F0678006000E100CD
:102054006088E10010003A00CE009000680047005C
:10206400618850008C1F78008A9FBE00A200200067
:10207400030020003E089000CE0890000002EB0010
:10208400AF0507004F05BE004F067800300F9800DB
:10209400410F9800DFFF37006A0047009080FB0083
:1020A400680047001008E100120034006A0047008D
:1020B4009080FB0068004700108050008C1F78005F
:1020C4008A9FBE00004578005BFB07000001BE004C
:1020D4000E0890009E08900044FA07004F05BE00C9
:1020E4004F067800000F9800110F98000E489000DA
:1020F400204F98004E00900065014000EC0047001E
:102104006C00470011081100680047001000E0004F
:1021140004003A006E00470010B0A7000100370029
:1021240003003700EE0090006C0047006188500007
:102134007E009000630060000000E20003003200B3
:10214400EE0090006C004700618850006E0047006C
:102154001020A6002F0037006E0047001010A600C4
:10216400110037006E0047001000A600030037007E
:10217400D0C2B3000047980002003700B0C2B300D9
:10218400004798008C1F78008A9FBE008A1F780041
:102194000E459000CF047800090001004F05BE00F1
:1021A4004F0678000B0037006E0047001000A600B1
:1021B400080037008C1F78008A9FBE008A1F7800B1
:1021C4000AC2B300CF047800090001004F05BE0025
:1021D4004F0678006E0090006000E1000C003400AF
:1021E4008C1F78008A9FBE008A1F78000AC3B30040
:1021F400CF047800090001004F05BE004F067800A7
:10220400EE0090006C00470061885000F1FF370039
:10221400310037006E0047001030A7000F00370070
:102224006E0090006000E1000C0034008C1F780008
:102234008A9FBE008A1F78000AC2B300CF047800C8
:10224400090001004F05BE004F067800EE00900023
:102254006C00470061885000F1FF37006E004700B2
:102264001010A600110037006E0047001000A600F1
:1022740003003700D0C2B3001047980002003700B3
:10228400B0C2B300104798008C1F78008A9FBE002C
:102294008A1F78001E459000CF04780009000100D1
:1022A4004F05BE004F0678000B0037006E00470054
:1022B4001000A600080037008C1F78008A9FBE001B
:1022C4008A1F78000AC2B300CF0478000900010015
:1022D4004F05BE004F0678008C1F78008A9FBE0011
:1022E4000E0890009E089000F1FB0700300F980044
:1022F400410F98006A0047001080FB00C200DD0017
:10230400C0412800810040001101BE003E08900039
:10231400CE0890000002EB00090507004F05BE003F
:102324000203200003002000020040008A9FBE0038
:102334008A1F780000457800CF0478000900010066
:102344004F05BE004F067800680047001000E0000B
:1023540004003A006E00470010B0A70001003700E7
:102364003E0037008C1F78008A9FBE008A1F7800C9
:10237400EAC2B300CF047800090001004F05BE0093
:102384004F0678006A0047001081FB00E800470010
:1023940068004700110811006A0047001004E000BB
:1023A4001F00320011C0B3006A00470010C81000BB
:1023B4006A0047001080FB00C200DD00C041280015
:1023C400810040001101BE008C1F78008A9FBE006E
:1023D4003E089000CE0890000002EB00D8040700ED
:1023E400A2002000030020000002EB00A804070064
:1023F4004F05BE000203200003002000000041003E
:102404008A9FBE008A1F780000457800CF047800B8
:10241400090001004F05BE004F067800DEFF3700BB
:10242400680047001000E0000C0032008C1F7800A8
:102434008A9FBE008A1F78000AC3B300CF047800C5
:10244400090001004F05BE004F067800CE00900041
:102454006800470061885000F1FF37006E004700B4
:102464001050A600090037008C1F78008A9FBE0018
:102474008A1F78005AC4B300CF0478000900010011
:102484004F05BE004F067800080037008C1F780007
:102494008A9FBE008A1F78005AC6B300CF04780012
:1024A400090001004F05BE004F0678002E08900079
:1024B4006000E1000C003D00AE089000740047008D
:1024C400608810008C1F78008A9FBE008A1F7800E5
:1024D400DAC2B300CF047800090001004F05BE0042
:1024E4004F067800080037008C1F78008A9FBE00D2
:1024F4008A1F7800BAC2B300CF0478000900010033
:102504004F05BE004F0678002E089000A200200060
:10251400110009000200D8008000780000032000A8
:10252400008040008C1F78008A9FBE008A1F7800BC
:1025340000457800CF047800090001004F05BE0073
:102544002E089000A2002000110009000200D8000B
:1025540000032000008040008A9FBE008A1F78008C
:1025640000457800CF047800090001004F05BE0043
:102574004F0678006E0047001030A6000F003700A9
:102584006E0090006000E1000C0034008C1F7800A5
:102594008A9FBE008A1F78000AC2B300CF04780065
:1025A400090001004F05BE004F0678006E00900040
:1025B4000020ED0060079800F4FF3A00BBFB3700F1
:1025C4006E0047001090A600670037002E089000A8
:1025D4006000E10005003D002E08900061015000FC
:1025E400E800470068004700110811008C1F7800BC
:1025F4008A9FBE000E0890009E0890002CFB0700E6
:102604004F05BE004F067800300F9800410F980028
:1026140010C0B300204F98006A0047001080FB00F0
:102624006A00E100100032006A0047001080FB00DD
:10263400C200DD00C041280081014000B3007800E1
:1026440023017800760047003008E1002090E10083
:10265400010036000400370011C0B3006A004700CF
:1026640010C84000ECFF37006A0047001081FB00EF
:10267400E800470068004700110811008C1F78002B
:102684008A9FBE003E089000CE089000ADFA070075
:10269400600F9800710F98000E0890009E0890003B
:1026A4006E099000FE09900037FB070000179800A0
:1026B400111798000E4D9000DFF907000E119000DD
:1026C4009E1190004DF707000200200003F0230044
:1026D400D7F70700F6FA07004F05BE004F0678004B
:1026E400300F9800410F9800680047001000E00088
:1026F4001D0032008C1F78008A9FBE00A2002000BB
:10270400030020003E089000CE0890000002EB0079
:10271400DF0307004F05BE004F0678006000E100AC
:102724006088E10010003A008C1F78008A9FBE0088
:10273400A2002000030020003E089000CE08900074
:102744000002EB00FE0307004F05BE004F067800B1
:10275400300F9800410F9800CE00900068004700A9
:1027640061885000E0FF37004E0090006C00E100EB
:102774000B003C008C1F78008A9FBE000E4D900019
:102784004FF907000E0990009E099000A8F7070072
:102794004F05BE004F067800000F9800110F9800F7
:1027A4008C1F78008A9FBE000E0890009E0890003F
:1027B4000420EF000620EF002CF907000000E000E1
:1027C4000060EF00010032000060EC004F05BE0025
:1027D4004F0678000040E200390032008C1F780078
:1027E4008A9FBE000E0890009E089000B0FA070071
:1027F4004F05BE004F0678006000E1006088E100EC
:102804002F003A002E0890006100E1002C003400F3
:102814008C1F78008A9FBE004E55900086F90700F1
:102824000001BE000E0890009E0890006FF807009B
:10283400F2052700930824000CF907000000E000CB
:102844000060EF0001003D000060EC004F05BE0099
:102854004F0678000040E20004003200910020009E
:102864007400470010881000030037008100200026
:1028740074004700108810008C1F78008A9FBE00E7
:102884004E5590006CF907000001BE000E08900040
:102894009E08900055F8070085FA07004F05BE0012
:1028A4004F067800300F9800410F98000020EF0089
:1028B4000220EF00000F9800110F98001700370056
:1028C4008C1F78008A9FBE000E0890009E0890001E
:1028D40077FA0700300F9800410F98003E089000E7
:1028E400CE08900017FA0700600F9800710F980047
:1028F4000E0890009E0890006E099000FE0990005A
:10290400A1FA07004F05BE004F067800000F98009B
:10291400110F98000020EF00200F980010C0B300A2
:10292400204F98006A0047001080FB006A00E10015
:10293400100032006A0047001080FB00C200DD0076
:10294400C041280081014000B300780023017800D1
:10295400760047003008E1002090E10001003600D5
:102964000400370011C0B3006A00470010C84000DB
:10297400ECFF37006A0047009080FB0068004700C6
:10298400908040007400470010814000EC00470034
:102994006C004700110811006E00470010B0A7003A
:1029A40004003700680047001000E00001003A000E
:1029B40003003700EE0090006C004700618850006F
:1029C4007E009000630060000000E200030032001B
:1029D400EE0090006C004700618850006E004700D4
:1029E4001020A6002F0037006E0047001010A6002C
:1029F400110037006E0047001000A60003003700E6
:102A0400D0C2B3002047980002003700B0C2B30020
:102A1400204798008C1F78008A9FBE008A1F780088
:102A24002E459000CF047800090001004F05BE0038
:102A34004F0678000B0037006E0047001000A60018
:102A4400080037008C1F78008A9FBE008A1F780018
:102A54000AC2B300CF047800090001004F05BE008C
:102A64004F0678006E0090006000E1000C00340016
:102A74008C1F78008A9FBE008A1F78000AC3B300A7
:102A8400CF047800090001004F05BE004F0678000E
:102A9400EE0090006C00470061885000F1FF3700A1
:102AA400310037006E0047001030A7000F003700D8
:102AB4006E0090006000E1000C0034008C1F780070
:102AC4008A9FBE008A1F78000AC2B300CF04780030
:102AD400090001004F05BE004F067800EE0090008B
:102AE4006C00470061885000F1FF37006E0047001A
:102AF4001010A600110037006E0047001000A60059
:102B040003003700D0C2B3003047980002003700FA
:102B1400B0C2B300304798008C1F78008A9FBE0073
:102B24008A1F78003E459000CF0478000900010018
:102B34004F05BE004F0678000B0037006E004700BB
:102B44001000A600080037008C1F78008A9FBE0082
:102B54008A1F78000AC2B300CF047800090001007C
:102B64004F05BE004F0678002E49900011C0B300F7
:102B74006A00470010C810000440E2001C00320044
:102B84006A0047001080FB00C200DD00C04128003D
:102B9400810040001101BE008C1F78008A9FBE0096
:102BA4003E089000CE0890000002EB00E40207000B
:102BB400A2002000030020000002EB00B402070082
:102BC4004F05BE0002032000030020000000410066
:102BD4008A9FBE008A1F780000457800CF047800E1
:102BE400090001004F05BE004F067800DEFF3700E4
:102BF4002E0890006000E1000C0034008C1F780067
:102C04008A9FBE008A1F78000AC3B300CF047800ED
:102C1400090001004F05BE004F0678001100200096
:102C24007400470010881000F1FF37004E00900038
:102C34006800E1000300340080C0B300204F980016
:102C4400020037000E489000204F98006A004700A9
:102C54001081FB00E80047006800470011081100DC
:102C64006A0047001004E00004003A006E004700C8
:102C740010B0A70001003700080037008C1F78004F
:102C84008A9FBE008A1F7800EAC2B300CF0478008E
:102C9400090001004F05BE004F0678008C1F780024
:102CA4008A9FBE002E4D900063F807000E09900025
:102CB4009E099000D1F50700B8F907004F05BE0042
:102CC4004F067800300F9800410F98006A004700C3
:102CD4001004E0001F00320011C0B3006A00470076
:102CE40010C810006A0047001080FB00C200DD001D
:102CF400C0412800810040001101BE008C1F7800F3
:102D04008A9FBE003E089000CE0890000002EB00AF
:102D14008B020700A2002000030020000002EB0049
:102D24005B0207004F05BE000203200003002000E1
:102D3400000041008A9FBE008A1F78000045780089
:102D4400CF047800090001004F05BE004F0678004B
:102D5400DEFF3700680047001000E0000C0032007E
:102D64008C1F78008A9FBE008A1F78000AC3B300B4
:102D7400CF047800090001004F05BE004F0678001B
:102D8400CE0090006800470061885000F1FF3700D2
:102D94006E0047001030A6000F0037006E00900050
:102DA4006000E1000C0034008C1F78008A9FBE0094
:102DB4008A1F78000AC2B300CF047800090001001A
:102DC4004F05BE004F0678006E0090000020ED0015
:102DD40060079800F4FF3A00B4F93700010C2000B2
:102DE4006E004700108060006000E10024003A009B
:102DF4006E0047001040A600090037008C007800E0
:102E04001C00780064005000000E78001101780066
:102E14001200BE00300F9800410F980009003700DF
:102E24008C0078001C00780000A0ED00000E7800F3
:102E34001100780010007800CF80DE00300F980079
:102E4400410F98003E089000CE0890006000E10019
:102E54006088E10009003D00FE0090006E0047001C
:102E6400638870003E089000CE0890006000100057
:102E7400E0801800300F9800410F980015003700CB
:102E84006E0047001040A600090037008C0078004F
:102E94001C00780064005000000E780011017800D6
:102EA4001200BE00300F9800410F9800090037004F
:102EB4008C0078001C00780000A0ED00000E780063
:102EC40011007800100078008000EB00300F9800AB
:102ED400410F98004E0090006000E10008003A00A5
:102EE4003E089000CE0890006000E1006088E10098
:102EF40003003A00CE00900068004700618840005B
:102F0400010C20006E004700108060000042780031
:102F14004500370010C0B300204F98006A004700F6
:102F24001080FB006A00E100100032006A004700D4
:102F34001080FB00C200DD00C04128008101400078
:102F4400B300780023017800760047003008E100E0
:102F54002090E1000100360004003700AE489000E4
:102F64006A00470061C84000ECFF370039003700B1
:102F740010C0B300204F98006A0047001080FB0087
:102F84006800E100100032006A0047001080FB0076
:102F9400C200DD004044280081014000B3007800F5
:102FA40023017800760047003008E1002090E1001A
:102FB4000100360004003700AE4890006A00470064
:102FC40061C84000ECFF37002200370010C0B30096
:102FD400204F98006A0047001080FB006C00E1005D
:102FE400100032006A0047001080FB00C200DD00C0
:102FF400C03E280081014000B3007800230178001E
:10300400760047003008E1002090E100010036001E
:1030140004003700AE4890006A00470061C84000D1
:10302400ECFF37000B0037006024E100B9FF3200E9
:1030340000CCB3000024E100B6FF320000C8B300A6
:103044000024E100CAFF320000C4B3000024E10000
:10305400DEFF32006A0047009080FB0068004700F2
:103064001008E10003003D000E489000204F980036
:10307400080037006A0047009080FB0068004700A2
:103084001008E100030034006A0047001080FB00D0
:10309400400798006C0047001000E0000700320071
:1030A4007E009000630060000000E2000300320034
:1030B400EE0090006C00470061885000EE00900024
:1030C400680047001008E100050034006E0190001C
:1030D400E80047006C004700110851000200370067
:1030E4000020EF0060079800FE009000408C200054
:1030F40080806000008420000008E10007003A009E
:103104006C0047001000E00003003200EE00900065
:103114006C004700618850000F003700FE009000EB
:10312400008C200080806000008820000008E100FE
:1031340009003A006E0090006200E10004003400CF
:10314400EE0090006C0047006288500002003700D7
:103154000020EF00600798006E0047001020A600D2
:103164004E0037006E0047001010A6001100370013
:103174006E0047001000A60003003700D0C2B30061
:103184004047980002003700B0C2B300404798009F
:103194008C1F78008A9FBE008A1F78004E459000DD
:1031A400CF047800090001004F05BE004F067800E7
:1031B4002A0037006E0047001000A60009003700FF
:1031C4008C1F78008A9FBE008A1F78000AC2B30051
:1031D400CF047800090001004F05BE004F067800B7
:1031E4001E003700FE009000008C200080806000EC
:1031F400008820000008E10018003A008C1F7800C5
:103204008A9FBE008A1F78000AC3B300CF047800E7
:10321400090001004F05BE004F0678006E0047000C
:103224001050A6000300370080C5B3005047980033
:103234000200370080C7B300504798008C1F780005
:103244008A9FBE008A1F78005E459000CF047800F4
:10325400090001004F05BE004F0678006C004700CE
:103264001000E0000C0032008C1F78008A9FBE0022
:103274008A1F78000AC3B300CF0478000900010054
:103284004F05BE004F0678006E0090000020ED0050
:1032940060079800F4FF3A005E0037006C004700B6
:1032A4001000E0000F0032006E0047001030A7004D
:1032B4000C0037008C1F78008A9FBE008A1F78009C
:1032C4000AC2B300CF047800090001004F05BE0014
:1032D4004F0678006E0090000020ED006007980013
:1032E400F4FF3A006E0047001010A60011003700EA
:1032F4006E0047001000A60003003700D0C2B300E0
:103304006047980002003700B0C2B30060479800DD
:103314008C1F78008A9FBE008A1F78006E4590003B
:10332400CF047800090001004F05BE004F06780065
:103334000B0037006E0047001000A600080037009D
:103344008C1F78008A9FBE008A1F78000AC2B300CF
:10335400CF047800090001004F05BE004F06780035
:10336400FE009000008C200080806000008420001B
:103374000008E10009003A008C1F78008A9FBE0013
:103384008A1F78000AC3B300CF0478000900010043
:103394004F05BE004F0678001E003700FE00900067
:1033A400008C200080806000008820000008E1007C
:1033B40018003A008C1F78008A9FBE008A1F78008C
:1033C4000AC3B300CF047800090001004F05BE0012
:1033D4004F0678006E0047001050A6000300370027
:1033E40080C5B300704798000200370080C7B3005F
:1033F400704798008C1F78008A9FBE008A1F78004F
:103404007E459000CF047800090001004F05BE00FE
:103414004F0678006A0047009080FB006800470070
:103424001008E10009003D008C1F78008A9FBE004F
:103434008A1F78000AC3B300CF0478000900010092
:103444004F05BE004F067800F2FF37004E01900092
:10345400CE00900068004700618850000400E2003C
:103464006C003200010C20006E00470010806000E8
:1034740000679800520037004E009000C200DD0043
:10348400C0412800810040001101BE008C1F78005B
:103494008A9FBE003E089000CE0890000002EB0018
:1034A400A7000700A2002000030020000002EB0098
:1034B400770007004F05BE004F06780003C3B30032
:1034C4006A01470003494000490037006E00470085
:1034D4001050A600140037004E009000C200DD001A
:1034E40040442800810040001101BE008C1F780078
:1034F4008A9FBE003E089000CE0890000002EB00B8
:103504008F0007004F05BE004F0678006F01600072
:10351400E0816000404628008200400011407800AD
:10352400204F9800130037004E009000C200DD00C9
:1035340040442800810040001101BE008C1F780027
:103544008A9FBE003E089000CE0890000002EB0067
:103554007B0007004F05BE004F0678006F01600036
:10356400E08160005047280082004000114078004C
:10357400204F98001E0037004E009000C200DD006E
:10358400C03E2800810040001101BE008C1F78005D
:103594008A9FBE003E089000CE0890000002EB0017
:1035A400670007004F05BE004F0678006701600002
:1035B40001C3B3006A004700014841000C00370012
:1035C4008E609000600CE100ABFF320000CCB300D1
:1035D400000CE100A8FF320000C8B300000CE100B9
:1035E400BAFF320000C4B300000CE100E2FF320075
:1035F4008C1F78008A9FBE008A1F78002E4D900091
:10360400CF047800090001004F05BE004F06780082
:103614008EFF37006E0047001030A6000F00370001
:103624006E0090006000E1000C0034008C1F7800F4
:103634008A9FBE008A1F78000AC2B300CF047800B4
:10364400090001004F05BE004F0678006E0090008F
:103654000020ED0060079800F4FF3A0093F737006C
:0C3664005E0890000080FA0000000600E4
:0C0CB8000A85FB001E0D0700000006006E
:100C84000000FA0090C3B3000054E10005003E00E8
:100C940000C3B3000054E1000200390010C0B300E7
:100CA400010037000020EF000080FB000080FA0004
:040CB4000000060036
:100E3C000400FA006054E10052003D000A00FB007F
:100E4C00E000100001457800E0C6B300000CE100A2
:100E5C002C0035000A00FB0042062000110009009E
:100E6C000200D80072004000C200DD00803B280068
:100E7C00010140001200BE00000798001107980005
:100E8C000A00FB0042062000110009000200D800F5
:100E9C0001007800A2002000110009000200D80017
:100EAC0069004000C200DD00803B2800810040004A
:100EBC001101BE000E0090009E0090008A1F780069
:100ECC004CFD07004F0578000007980011079800AB
:100EDC000A00FB00A2002000110009000200D8004B
:100EEC0001007800C200DD00803B2800810040003A
:100EFC001101BE000E0090009E0090003DFD070009
:100F0C006E0037006A54E100180034000A00FB0040
:100F1C00A2002000110009000200D8006900400066
:100F2C00C200DD00803B2800010140001200BE0021
:100F3C0000079800110798000A00FB00A20020008F
:100F4C00110009000200D80001007800C200DD0089
:100F5C00803B2800810040001101BE000E00900073
:100F6C009E00900023FD0700540037000A00FB0090
:100F7C00C200DD00803B2800010140001200BE00D1
:100F8C004E003700E0C6B3000054E1002C003500E1
:100F9C000A00FB0042062000110009000200D800E4
:100FAC0072004000C200DD00403828000101400002
:100FBC001200BE0000079800110798000A00FB0001
:100FCC0042062000110009000200D8000100780040
:100FDC00A2002000110009000200D80069004000A6
:100FEC00C200DD0040382800810040001101BE0025
:100FFC000E0090009E0090008A1F7800FDFC0700F8
:10100C004F05780000079800110798000A00FB00B4
:10101C00A2002000110009000200D8000100780095
:10102C00C200DD0040382800810040001101BE00E4
:10103C000E0090009E009000EEFC07001F00370091
:10104C006A54E100180034000A00FB00A2002000E2
:10105C00110009000200D80069004000C200DD0048
:10106C0040382800010140001200BE000007980023
:10107C00110798000A00FB00A200200011000900D3
:10108C000200D80001007800C200DD0040382800C2
:10109C00810040001101BE000E0090009E009000E7
:1010AC00D4FC0700050037000A00FB00C200DD007D
:1010BC0040382800010140001200BE000080FA00F8
:0410CC00000006001A
:100400000000FA00020007001603040000000000CC
:10041000889FBE008A9FBE008C1F780030000700B6
:100420003700330003866C006450E1002400320082
:100430006420E100270032006150E1002200320018
:100440006120E100210032008B854200EB07B10002
:100450000134B800003AB8000804420089844A0018
:10046000013AB8000030B8008880400009014A0015
:100470000400330000004000818048000201490070
:100480008B05E900C909DD0083017000010032001D
:1004900013002000C814DE004814DD004709DE0008
:1004A0001200B200C808DE000884700024000700B3
:1004B00001F0A1000CF0A70003E0A800190037002C
:1004C0006120E1001B0032000881BE000280BE00F6
:1004D000F7FF37006150E100FCFF3A0015003700DC
:1004E0000084BE003C0007000083BE000485BE00FF
:1004F0000280BE0038000700844F7500000006002F
:100500000280BE006450E100050036006420E10076
:10051000020036000968A30001003A000880BE000E
:1005200002C0A8004F0678004F05BE004F04BE0071
:1005300000000600F0FF2F00F1FF2700F9FF370051
:1005400081002000618055000B003D000B00200061
:1005500061FE2F000100E1001D0034008281710066
:10056000610164008904D1000884D3000000E80020
:10057000FAFF3A007100200061006400030070007F
:10058000020060000900320061044400E0844C0075
:100590000988A500050032008B05E8006808E10025
:1005A00002003A008904D1000884D300F20F200031
:1005B0000258E10005003D00C75DDD00F907B2000B
:1005C0008980750008008800000006000BF82700ED
:1005D0001B00880000000500C70ADE00F107B2001A
:1005E000F50FB20008003200E1CF420002003200F5
:1005F00002E0A80024000500810F70000100320015
:100600000408050044000500810F700002003A0054
:10061000140005008502E9000000400081C0480088
:10062000FCFF3B0002E0A800240005000080FA0067
:0406300000000600C0
:100CC4000400FA00E0C6B3000054E100310039002A
:100CD4000A80FB0042062000110009000200D8002F
:100CE40072004000C200DD00803B2800010140008A
:100CF4001200BE008A1F78000200200003F02300C7
:100D0400BEFD07004F057800000798001107980002
:100D14000A80FB0042062000110009000200D800EE
:100D240001007800A2002000110009000200D80090
:100D340069004000C200DD00803B280081004000C3
:100D44001101BE000E0090009E0090008A1F7800E2
:100D5400AAFD07004F0578000007980011079800C6
:100D64000A80FB00A2002000110009000200D80044
:100D740001007800C200DD00803B280081004000B3
:100D84001101BE000E0090009E0090009BFD070024
:100D9400270037006A54E1001D0036000A80FB007A
:100DA400A2002000110009000200D80069004000E0
:100DB400C200DD00803B2800010140001200BE009B
:100DC4008A1F78000200200003F023008BFD070037
:100DD4004F05780000079800110798000A80FB006F
:100DE400A2002000110009000200D80001007800D0
:100DF400C200DD00803B2800810040001101BE00DC
:100E04000E0090009E0090007CFD07000800370053
:100E14000A80FB00C200DD00803B28000101400085
:100E24001200BE000200200003F0230073FD07003F
:080E34000080FA000000060036
:100C70000000FA001400200024FF07000080FA00A2
:040C8000000006006A
:10090C000000FA0002000700F404040000000000DC
:10091C00841F7800140007004F007800110033008A
:10092C00F0FF2F00838F6C0006003B000405650070
:10093C000A00A7000800370009F0A60010002000EC
:10094C0008003700820F5400838F5C0003003900CD
:10095C001000200001003E000000200009F0A7005C
:10096C000000EA00000006000084BE00060007003C
:10097C000083BE000485BE000280BE00020007009A
:10098C00844F750000000600C70ADE00F107B200B4
:10099C00F50FB20008003200E1CF42000200320035
:1009AC0002E0A80024000500810F70000100320055
:1009BC000408050044000500810F700002003A0095
:1009CC00140005008502E9000000400081C04800C9
:1009DC00FCFF3B0002E0A800240005000080FA00A8
:0409EC000000060001
:100C5C000000FA00F4FF2F0029FF07000080FA00C3
:040C6C00000006007E
:1009F0000000FA00020007002A06040000000000C0
:100A0000889FBE008A9FBE008C1F78003E000700B2
:100A10004500330003866C006450E1002E00320074
:100A20006420E100330032006150E1002F00320009
:100A30006120E1003100320085855500EB07B000F0
:100A400009002000080420000500370008044400C5
:100A500089844C000A0031000603430087834B0061
:100A60000001530081815B00F8FF33000283BE0068
:100A70001000A8000804440089844C00F6FF3900E7
:100A8000C639DD008301730001003200130020002D
:100A90008904D1000884D3000998A300050032001E
:100AA0000800A7000600A8008904D1000884D3002C
:100AB0008B05E8008904D1000884D3000001EB0015
:100AC0000281D2002800070001F0A1000CF0A7006D
:100AD00003E0A8001D0037006420E1001F00320081
:100AE0000881BE000280BE00F7FF37006120E100F0
:100AF0001A0032006000B800F3FF37000000200049
:100B000001F82700F0FF37000084BE003C0007001A
:100B10000083BE000485BE000280BE0038000700CE
:100B2000844F7500000006000280BE006450E100A2
:100B3000050036006420E100020036000968A300C9
:100B400001003A000880BE0002C0A8004F067800ED
:100B50004F05BE004F04BE0000000600F0FF2F004E
:100B6000F1FF2700F9FF3700810020006180550068
:100B70000B003D000B00200061FE2F000100E10092
:100B80001D00340082817100610164008904D1007C
:100B90000884D3000000E800FAFF3A00710020004A
:100BA0006100640003007000020060000900320070
:100BB00061044400E0844C000988A500050032006F
:100BC0008B05E8006808E10002003A008904D100C2
:100BD0000884D300F20F20000258E10005003D0018
:100BE000C75DDD00F907B200898075000800880044
:100BF000000006000BF827001B008800000005001D
:100C0000C70ADE00F107B200F50FB200080032009B
:100C1000E1CF42000200320002E0A80024000500FB
:100C2000810F700001003200040805004400050037
:100C3000810F700002003A00140005008502E900EF
:100C40000000400081C04800FCFF3B0002E0A8001B
:0C0C5000240005000080FA0000000600EF
:1012B4000000FA0002000700C20904000000000058
:1012C4000081BE00190007000470A70003F0A1000C
:1012D40003F8A30013003A006509B10010003200BE
:1012E400090035006928E1000200350001002800EA
:1012F4000000050000004000818048008502E900EC
:10130400FCFF3A0000000600F88F4200050035009B
:101314008100D1000080D3008502E800FCFF3A0080
:10132400000006008000EB0000000500C70ADE0094
:10133400F107B200F50FB20008003200E1CF42001D
:101344000200320002E0A80024000500810F7000B2
:10135400010032000408050044000500810F7000FC
:1013640002003A00140005008502E9000000400074
:1013740081C04800FCFF3B0002E0A80024000500F7
:081384000080FA0000000600E1
:101148000000FA0002000700560904000000000031
:101158000400E20006003A000005EB000200E2008D
:101168000F003E000000E200270032000C003700AC
:10117800A10088000200E2000400350008003C00DD
:101188000000E20020003200050037006000100077
:10119800E080180002003B0001F02C001A00370024
:1011A8000084BE006011B8006B0920000982CF00DE
:1011B800020039000882CF000441B00069425200A1
:1011C8000E00320008003B0082817100610164005A
:1011D8008904D1000884D3008B05E8000442E800A4
:1011E800F9FF3A00050037000804440089844C00E0
:1011F8008B05E9000442E900FBFF3A000300070001
:101208000AF0A70003E0A800000006008100200003
:10121800618055000B003D000B00200061FE2F008F
:101228000100E1001D003400828171006101640049
:101238008904D1000884D3000000E800FAFF3A00CE
:10124800710020006100640003007000020060006B
:101258000900320061044400E0844C000988A500BC
:10126800050032008B05E8006808E10002003A003A
:101278008904D1000884D300F20F20000258E1004D
:1012880005003D00C75DDD00F907B20089807500E3
:1012980008008800000006000BF827001B008800E3
:0C12A800000005000080FA0000000600B5
:10138C000000FA0007E0AA00A7FC07000080FA00A2
:04139C000000060047
:100634000000FA0002000700820404000000000029
:10064400889FBE008A9FBE008C1F78005900070057
:10065400600033006450E1004F0032006420E10088
:100664005200320003826C0007003B000905D000F1
:100674000306D000820F54000C065D00020039000E
:100684000200320039008800C300880085825500CA
:1006940004003D000003FD008103FD008502EA0023
:1006A4008B854200840F720002003B006000100042
:1006B400E08018006011B8000005EB007A28E10022
:1006C4000A00390006008800C75DDD00F707B200A4
:1006D400878075002D003700828171002A00880010
:1006E400610560008180D1000080D3008502E900AB
:1006F400F9FF3B00060440008784480002003B00E9
:1007040060041400E0841C000988A3000700320080
:100714008A81710082817100610164008904D100C1
:100724000884D3008B05E800170037000978A3007C
:1007340013003A001600E200130034008B05E900B0
:100744000804440089844C000A4474000978A30016
:100754000D003A001600E200070034008B05E900A2
:100764000804440089844C0001003A000B00200076
:100774000978A300F7FF32000001EB000200370004
:10078400828171002A008800220007000CF0A70073
:1007940003E0A800180037006420E10002003A00DA
:1007A400838F6C00180033000881BE000280BE00F5
:1007B400110037000084BE003C0007000083BE0027
:1007C4000485BE000280BE0038000700844F750017
:1007D400000006000280BE006450E10005003600FF
:1007E4006420E100020036000968A30001003A0019
:1007F4000880BE0002C0A8004F0678004F05BE0066
:100804004F04BE0000000600F0FF2F00F1FF270098
:10081400F9FF370081002000618055000B003D0086
:100824000B00200061FE2F000100E1001D003400D8
:1008340082817100610164008904D1000884D300BD
:100844000000E800FAFF3A00710020006100640033
:1008540003007000020060000900320061044400DB
:10086400E0844C000988A500050032008B05E800EF
:100874006808E10002003A008904D1000884D3002A
:10088400F20F20000258E10005003D00C75DDD00C5
:10089400F907B2008980750008008800000006008E
:1008A4000BF827001B00880000000500C70ADE00C3
:1008B400F107B200F50FB20008003200E1CF4200A8
:1008C4000200320002E0A80024000500810F70003D
:1008D400010032000408050044000500810F700087
:1008E40002003A00140005008502E90000004000FF
:1008F40081C04800FCFF3B0002E0A8002400050082
:080904000080FA00000006006B
:1013A0000000FA0002000700440A040000000000E8
:1013B0000081BE001F0007000470A70003F0A10019
:1013C0006509B100160032000D0035006828E10003
:1013D00006003500F0FF2F00F1FF27000600E200B5
:1013E00013003B0001002800000005000000400041
:1013F000818048008502E900FCFF3A0008003700C0
:10140000F88F420002003C008000EB000000050065
:101410008100D1000080D3008502E800FCFF3A0083
:101420000600E20002003B0060001000E0801800AF
:1014300000000600C70ADE00F107B200F50FB20097
:1014400008003200E1CF42000200320002E0A800B2
:1014500024000500810F700001003200040805001F
:1014600044000500810F700002003A0014000500DE
:101470008502E9000000400081C04800FCFF3B00FD
:1014800002E0A800240005000080FA000000060029
:104154000200FA0000002000004798001A4078008E
:104164006004E1000C0032008A1F78000085FB0027
:10417400C6F407004F0578000E4090000060EC0084
:10418400004798000080FB00000045009040780044
:1041940001407800F2FF37000080FA0000000600BA
:101490000000FA0040458000000001000080FA00D2
:0414A0000000060042
:1010D0000000FA003302AF0001003700FDFF3700C7
:0C10E000AA1188000080FA000000060041
:10112C000000FA005302AF0001003700FDFF37004A
:0C113C00AA1288000080FA0000000600E3
:101110000000FA00B302AF0001003700FDFF370006
:0C112000AA1588000080FA0000000600FC
:104744000A8020000B002000540009000B1D780093
:04475400000006005B
:1047580001802000202E28004F000900B0187800A2
:08476800B058780000000600C3
:020000040001F9
:100000002F2A00002A2A00002A2A00002A2A00009B
:100010002A2A00002A2A00002A2A00002A2A000090
:100020002A2A00002A2A00002A2A00002A2A000080
:100030002A2A00002A2A00002A2A00002A2A000070
:100040002A2A00002A2A00002A2A00002A2A000060
:100050002A2A00002A2A00002A2A00002A2A000050
:100060002A2A00002A2A00002A2A00002A2A000040
:100070002A2A00002A0D00000A2000002A20000081
:10008000507200006F6A0000656300007420000079
:100090006E6100006D6500003A0D00000A2000004E
:1000A000202000002020000053740000726900002E
:1000B0006E67000020520000656300006569000063
:1000C000766500002F530000656E0000642000007C
:1000D0000D0A0000202A0000204300007265000085
:1000E000617400006564000020620000793A00003D
:1000F0000D0A0000202000002020000020540000F5
:10010000617200006971000020440000696E000007
:100110006D6F0000686100006D650000642E0000D6
:100120000D0A0000202A0000205200006576000021
:1001300069730000696F00006E20000048690000CC
:10014000737400006F720000793A00000D0A00001D
:10015000202000002020000020320000303200006B
:100160003030000035330000312D00003136000002
:100170003A300000303A00000D0A00002020000054
:100180002020000020200000202D00002049000039
:100190006E69000074690000616C0000207200004C
:1001A000656C000065610000736500000D0A0000C9
:1001B000202000002020000020320000303200000B
:1001C0003030000035330000312D000031360000A2
:1001D0003A350000323A00000D0A000020200000ED
:1001E0002020000020200000202D000020520000D0
:1001F000656D00006F76000065640000202F000030
:100200002F200000667200006F6D00002068000063
:10021000656C0000702000006D6500006E750000C8
:100220002E0D00000A2000002A2000004465000076
:10023000736300007269000070740000696F000051
:100240006E3A00000D0A000020200000202000006F
:1002500020530000696D0000706C000065200000F4
:10026000646500006D6F00006E7300007472000022
:1002700061740000696F00006E2000006F6E000066
:100280002072000065630000656900007669000067
:100290006E6700002073000074720000696E000039
:1002A00067730000206100006E200000757300007D
:1002B000696E00006720000074680000656D000032
:1002C0002061000073200000636F00006D6D00006E
:1002D000616E0000647300000D0A0000202A000017
:1002E000205400006573000074200000636F00005C
:1002F0006E6600006967000075720000617400009E
:10030000696F00006E3A00000D0A00002020000016
:1003100020200000204D0000435500003A2000003E
:1003200020200000202000002020000020200000CD
:100330002020000020200000503200003446000041
:100340004A310000323800004741000033300000DD
:10035000360D00000A2000002020000020200000B0
:100360004F730000636900006C6C00006174000052
:100370006F7200003A2000002020000020200000C2
:1003800020480000532C000020330000324D0000B4
:10039000487A00000D0A0000202A000020430000D7
:1003A0006F6D00006D6100006E640000733A000024
:1003B0000D0A000020200000202000002063000023
:1003C0006F6D00006D6100006E6400003120000060
:1003D0002D20000077690000746800006F75000030
:1003E00074200000737000006163000065730000FA
:1003F000206F00006620000063610000706900004B
:10040000746100006C6900007A610000746900008A
:100410006F6E00002E0D00000A200000202000005A
:1004200020200000436F00006D6D0000616E000031
:1004300064320000202D0000207700006974000065
:1004400068200000636100007069000074610000B2
:100450006C6900007A610000746900006F6E000032
:100460002E0D00000A2000002020000020200000A7
:10047000636F00006D6D0000616E0000642000007D
:10048000332000002D200000776900007468000010
:10049000207300007061000063650000732E00008F
:1004A0000D0A000020200000202000002043000052
:1004B0006F6D00006D6100006E640000203400006C
:1004C000202D0000207700006974000068200000E3
:1004D0006361000070690000746100006C690000D5
:1004E0007A610000746900006F6E00002026000031
:1004F000207300007061000063650000732E00002F
:10050000200D00000A200000202000002020000014
:10051000486500006C700000202D0000205700008E
:100520006861000074200000796F000075270000EA
:10053000726500002073000065650000696E0000B0
:10054000670D00000A2000002A2A00002A2A000065
:100550002A2A00002A2A00002A2A00002A2A00004B
:100560002A2A00002A2A00002A2A00002A2A00003B
:100570002A2A00002A2A00002A2A00002A2A00002B
:100580002A2A00002A2A00002A2A00002A2A00001B
:100590002A2A00002A2A00002A2A00002A2A00000B
:1005A0002A2A00002A2A00002A2A00002A2A0000FB
:1005B0002A2A00002A2A00002A2A00002F0D000003
:0405C0000A0000002D
:1005C400446F00006E6500002032000000630000EC
:1005D4006F6D00006D6100006E6400002033000048
:1005E400000000000000000000560000312E000052
:0805F400320D00000A000000B6
:1005FC004A7500006E2000002031000020320000FF
:08060C00303200003000000054
:10061400446F00006E6500002031000000430000BC
:100624006F6D00006D6100006E6400003200000018
:100634000000000000000000004400006F6E000095
:080644006520000033000000F6
:10064C00636F00006D6D0000616E0000643100008E
:0C065C0000000000000000000000000092
:100668000D0A0000004300006F6D00006D6100007E
:100678006E6400002034000000000000000000004C
:10068800004400006F6E0000652000003400000088
:100698006E7500006C6C0000005500006E72000062
:1006A800656300006F6700006E6900007A650000EE
:1006B80064200000636F00006D6D0000616E000033
:0806C800643A0000200000006C
:1006D000000000000000000000000000000000001A
:1006E000000000000000000000000000000000000A
:1006F0000D0A000000680000656C0000700000003A
:080700000D0A000000000000DA
:1007080000000000803F00000000000020410000C1
:1007180000000000C8420000000000007A44000009
:10072800004000001C46000000500000C3470000C5
:10073800002400007449000080960000184B000057
:1007480020BC0000BE4C0000286B00006E4E00006C
:10075800F902000015500000EC780000AD600000C0
:08076800CAF200004971000013
:1007700000000000803F0000CDCC0000CC3D000018
:100780000AD70000233C00006F120000833A0000EB
:1007900017B70000D1380000ACC5000027370000B3
:1007A000BD3700008635000095BF0000D63300003D
:1007B00077CC00002B3200005F7000008930000011
:1007C000FFE60000DB2E000008E500003C1E0000F4
:0807D00060420000A20D0000D0
:1007D8000100000000000000080000000000000008
:1007E80040000000000000000002000000000000BF
:1007F8000010000000000000008000000000000061
:1008080000000000040000000000000020000000BC
:1008180000000000000100000000000000080000C7
:100828000000000000400000000000000000000080
:1008380001000000000000000A00000000000000A5
:100848006400000000000000E80300000000000051
:100858001027000000000000A08600000100000032
:10086800404200000F000000809600009800000041
:1008780000E10000F505000000CA00009A3B0000F6
:10088800010000000000000010000000000000004F
:10089800000100000000000000100000000000003F
:1008A800000000000100000000000000100000002F
:1008B800000000000001000000000000001000001F
:1008C8003031000032330000343500003637000084
:1008D800383900004142000043440000454600000A
:1008E800003000003132000033340000353600009B
:1008F8003738000039610000626300006465000059
:040908006600000085
:020000040002F8
:10AFF0007FFE0000FFFF0000BEFA00009F3F000040
:00000001FF
